:100000000C94B1000C94D9000C94D9000C94C80144
:100010000C94EC010C9410020C94D9000C94D900AF
:100020000C94D9000C94D9000C94D9000C94D900EC
:100030000C94D9000C94D9000C94D9000C94D900DC
:100040000C94F2040C94D9000C94D9000C94D900AF
:100050000C94D9000C94D9000C94D9000C94D900BC
:100060000C94D9000C94D90000C2010001001100C9
:1000700011000C0000E100000A002500250021000D
:10008000009600001900390039003600127A00008D
:100090001F004600460044008070000022004D0012
:1000A0004D004A00004B00003600750075007200DC
:1000B000403800004A009C009C0099008025000008
:1000C0007200EC00EC00E900C0120000E900DA0167
:1000D000DA01D70160090000D701B603B603B30304
:1000E000B0040000B3036E076E076B0758020000F0
:1000F0006E07DC0EDC0ED80E2C010000DC0EC11DDC
:10010000C11DBE1D00000000240027002A000000C1
:100110000000250028002B0000000000230026001E
:10012000290004040404040404040202020202027A
:1001300003030303030301020408102040800102AB
:10014000040810200102040810200000000700022B
:100150000100000304060000000000000000FA0097
:10016000F30011241FBECFEFD8E0DEBFCDBF12E0F9
:10017000A0E0B1E0E6E3FDE002C005900D92A035FD
:10018000B107D9F712E0A0E5B2E001C01D92A93B8A
:10019000B107E1F711E0C0E6D1E004C02297FE010B
:1001A0000E948A06CE35D107C9F70E94B9040C9483
:1001B0008E060C9400008130910559F46F5F7F4FDB
:1001C00089F480E592E060E041E020E00E948B0449
:1001D0000895892B39F46F5F7F4F21F480E592E019
:1001E0000E941203089580E090E06FEF7FEF0E947D
:1001F000DB00089581E090E06FEF7FEF0E94DB006D
:100200000895CF93DF93C0E0D1E080E592E068816C
:100210000E9456036A81615080E592E00E94560375
:1002200080E592E06C810E94560380E592E06E8149
:100230000E94560380E592E068850E94560360E6BE
:1002400070E080E090E00E943A052A9682E0C03497
:10025000D807D9F6DF91CF9108950E940101089542
:1002600080E592E042E15AE760E070E00E943402EB
:100270000895FC0180916C0290916D028E179F078A
:1002800011F480E00895838D8E7F838F9FB7F8945B
:100290001092AE028091AE028093AF02F0936D0295
:1002A000E0936C029FBF81E008950F931F93CF935B
:1002B000DF93FC01838DA685B7859585082F027095
:1002C00081FF05C08C91892309F454C004C08C912E
:1002D000892309F04FC08389948920E001972FEF8B
:1002E0008F3F9207D9F7C589D689A685B7857585C9
:1002F00060E031E040E050E010E0CE01212F0197B6
:100300002FEF8F3F9207D9F78C91872311F0632B42
:1003100003C0832F80956823330F4F5F5F4F4830B2
:10032000510559F78789908D20E001972FEF8F3F76
:100330009207D9F7011160958091AE022091AF022A
:1003400090E001968F73907030E08217930779F0F8
:10035000E091AE02F0E0E259FD4F60838091AE0281
:1003600090E001968F7390708093AE0203C0838DEE
:100370008160838FDF91CF911F910F9108958091BC
:100380006C0290916D02009711F00E945501089542
:100390001F920F920FB60F9211242F933F934F93FA
:1003A0005F936F937F938F939F93AF93BF93EF93DD
:1003B000FF930E94BF01FF91EF91BF91AF919F9179
:1003C0008F917F916F915F914F913F912F910F90FE
:1003D0000FBE0F901F9018951F920F920FB60F929D
:1003E00011242F933F934F935F936F937F938F933A
:1003F0009F93AF93BF93EF93FF930E94BF01FF9131
:10040000EF91BF91AF919F918F917F916F915F918C
:100410004F913F912F910F900FBE0F901F90189505
:100420001F920F920FB60F9211242F933F934F9369
:100430005F936F937F938F939F93AF93BF93EF934C
:10044000FF930E94BF01FF91EF91BF91AF919F91E8
:100450008F917F916F915F914F913F912F910F906D
:100460000FBE0F901F901895CF92DF92EF92FF92E0
:100470000F931F93CF93DF93EC017A018B011A8EB8
:10048000198E188E1F8A1E8A1D8A1C8A1B8A20E0DC
:1004900030E06901CC0CDD1CC20ED31EB601660F24
:1004A000771F660F771FAB0148595F4FFA0185919F
:1004B0009591A591B4918E159F05A007B107E9F418
:1004C000FB01E459FF4F859194919C8B8B8BFB0131
:1004D000E259FF4F859194919E8B8D8BFB01E059E2
:1004E000FF4F85919491988F8F8BFB01EE58FF4FB2
:1004F000859194919A8F898F06C02F5F3F4F2D3041
:10050000310509F0C6CF8F89988D892B09F449C030
:100510004C85463108F03DC090916800483010F499
:1005200084E005C04E3010F082E001C081E0892BEC
:1005300080936800483028F4EDE6F0E0ADE6B0E0E6
:100540000BC04E3028F0ECE6F0E0ACE6B0E004C0C2
:10055000EBE6F0E0ABE6B0E05081483040F481E0FB
:1005600090E002C0880F991F4A95E2F710C0242F2F
:1005700030E04E3018F42850304002C02E50304049
:1005800081E090E002C0880F991F2A95E2F7852B41
:100590008C93898D9A8D20E001972FEF8F3F9207E2
:1005A000D9F7CE010E943901DF91CF911F910F91B0
:1005B000FF90EF90DF90CF900895FC014485463185
:1005C00080F5483028F4EDE6F0E0ADE6B0E00BC091
:1005D0004E3028F4EBE6F0E0ABE6B0E004C0ECE629
:1005E000F0E0ACE6B0E05081483040F481E090E0CB
:1005F00002C0880F991F4A95E2F710C0242F30E0FF
:100600004E3018F42850304002C02E50304081E067
:1006100090E002C0880F991F2A95E2F78095852304
:100620008C930895FC0184E492E091838083CF0150
:100630000E94DD02089520916C0230916D0228170E
:10064000390731F49091AF028091AE02981719F4F6
:100650002FEF3FEF0FC0E091AF02F0E0E259FD4F06
:1006600020818091AF0290E001968F73907080930B
:10067000AF0230E0C901089520916C0230916D0203
:100680002817390719F020E030E00EC08091AE0243
:100690002091AF0290E0805C9F4F821B910960E443
:1006A00070E00E9461069C01C90108950F931F9399
:1006B000DC0159968D919C915A97892B49F481E0E0
:1006C00090E013969C938E93129720E030E097C0B1
:1006D0000FB7F8945B968C915B975196ED91FC91D6
:1006E000529750962C91509781FF8DC08081822B1C
:1006F000808359968D919C915A97059620E0019799
:100700002FEF8F3F9207D9F75B968C915B9781FF14
:1007100035C031E040E050E070E010E0832F90E021
:10072000862397235196ED91FC91529750962C91E8
:100730005097892B29F0808120952823208303C09E
:100740008081822B808359968D919C915A97212F7D
:1007500001972FEF8F3F9207D9F7330F4F5F5F4F0E
:1007600048305105D9F65196ED91FC915297908100
:1007700050968C9150978095892333C031E040E0AA
:1007800050E070E010E0832F90E08623972351968D
:10079000ED91FC91529750962C915097892B21F016
:1007A0008081822B808304C0808120952823208330
:1007B00059968D919C915A97212F01972FEF8F3F3A
:1007C0009207D9F7330F4F5F5F4F48305105D9F685
:1007D0005196ED91FC915297808150969C91509743
:1007E000892B80830FBF59968D919C915A9720E059
:1007F00001972FEF8F3F9207D9F721E030E0C90131
:100800001F910F910895808120952823208371CF17
:1008100020916C0230916D022817390749F49FB777
:10082000F8941092AE028091AE028093AF029FBF07
:10083000089520916C0230916D022817390731F428
:100840009091AF028091AE02981719F42FEF3FEF0D
:100850000AC0E091AF02F0E0E259FD4F8081282FFD
:10086000332727FD3095C90108951F93CF93DF9358
:10087000EC01162F862F60E00E94CE058B8D81FD46
:1008800004C0812F61E00E940D061C87212F30E0FB
:10089000C9018A5C9E4FFC0184918D872E5D3E4F7D
:1008A000F9016491E62FF0E0EE0FFF1FE85EFE4FC6
:1008B000859194919F878E87DF91CF911F910895A5
:1008C000FF920F931F938C01F62E862F61E00E94FA
:1008D000CE058F2D61E00E940D068F2D90E0FC016A
:1008E000EA5CFE4FE491D8015096EC9350978E5DF0
:1008F0009E4FFC016491E62FF0E0EE0FFF1FE25FD8
:10090000FE4F8591949152969C938E9351971F918F
:100910000F91FF900895FF920F931F938C01F62E75
:10092000FC011382128288EE93E0A0E0B0E08483A1
:100930009583A683B78384E492E091838083148AAD
:10094000138A168A158A108E178A128E118E838D3D
:100950002170220F8C7F822B838FC801642F0E940D
:100960006004C8016F2D0E9435041F910F91FF9004
:100970000895CF93DF930E9493050E943001C0E059
:10098000D0E00E942D012097E1F30E940000F9CFF2
:10099000CF92DF92EF92FF920F931F93CF93DF934B
:1009A0007C016B018A01C0E0D0E00FC0D6016D91DF
:1009B0006D01D701ED91FC910190F081E02DC7010F
:1009C0000995C80FD91F015010400115110571F785
:1009D000CE01DF91CF911F910F91FF90EF90DF90AB
:1009E000CF9008951F920F920FB60F9211242F935C
:1009F0003F938F939F93AF93BF938091B402909155
:100A0000B502A091B602B091B7023091B80201963A
:100A1000A11DB11D232F2D5F2D3720F02D570196DD
:100A2000A11DB11D2093B8028093B4029093B5022A
:100A3000A093B602B093B7028091B0029091B10238
:100A4000A091B202B091B3020196A11DB11D809395
:100A5000B0029093B102A093B202B093B302BF91DF
:100A6000AF919F918F913F912F910F900FBE0F905B
:100A70001F9018959B01AC017FB7F8948091B0024C
:100A80009091B102A091B202B091B30266B5A89B59
:100A900005C06F3F19F00196A11DB11D7FBFBA2F90
:100AA000A92F982F8827860F911DA11DB11D62E0E7
:100AB000880F991FAA1FBB1F6A95D1F7BC012DC0D3
:100AC000FFB7F8948091B0029091B102A091B20268
:100AD000B091B302E6B5A89B05C0EF3F19F00196AF
:100AE000A11DB11DFFBFBA2FA92F982F88278E0FE8
:100AF000911DA11DB11DE2E0880F991FAA1FBB1F08
:100B0000EA95D1F7861B970B885E9340C8F2215077
:100B100030404040504068517C4F2115310541051F
:100B2000510571F60895789484B5826084BD84B5CA
:100B3000816084BD85B5826085BD85B5816085BDD8
:100B4000EEE6F0E0808181608083E1E8F0E01082F1
:100B5000808182608083808181608083E0E8F0E032
:100B6000808181608083E1EBF0E08081846080831C
:100B7000E0EBF0E0808181608083EAE7F0E0808153
:100B800084608083808182608083808181608083B3
:100B90008081806880831092C1000895CF93DF9395
:100BA000482F50E0CA018A5C9E4FFC0134914E5D93
:100BB0005E4FFA018491882369F190E0880F991FB4
:100BC000FC01EC5FFE4FA591B491FC01E25FFE4F8A
:100BD000C591D491662351F42FB7F8948C91932F3B
:100BE000909589238C93888189230BC0623061F4AE
:100BF0002FB7F8948C91932F909589238C938881AB
:100C0000832B88832FBF06C09FB7F8948C91832BCA
:100C10008C939FBFDF91CF910895482F50E0CA0178
:100C2000865B9E4FFC012491CA018A5C9E4FFC01A9
:100C300094914E5D5E4FFA013491332309F440C024
:100C4000222351F1233071F0243028F42130A1F017
:100C5000223011F514C02630B1F02730C1F0243015
:100C6000D9F404C0809180008F7703C08091800008
:100C70008F7D8093800010C084B58F7702C084B5CB
:100C80008F7D84BD09C08091B0008F7703C08091B3
:100C9000B0008F7D8093B000E32FF0E0EE0FFF1FD8
:100CA000E25FFE4FA591B4912FB7F894662321F42B
:100CB0008C919095892302C08C91892B8C932FBFA6
:100CC000089597FB092E07260AD077FD04D00CD093
:100CD00006D000201AF4709561957F4F0895F6F7BD
:100CE000909581959F4F0895AA1BBB1B51E107C0AA
:100CF000AA1FBB1FA617B70710F0A61BB70B881FAC
:100D0000991F5A95A9F780959095BC01CD0108953A
:100D1000EE0FFF1F0590F491E02D099411E0C0E65D
:100D2000D1E004C0FE010E948A062296C236D10795
:060D3000C9F7F894FFCFA3
:100D3600C0000400B0000B000000C0000400B000BA
:100D46000B005600C0000200B0000B004B00C000B4
:100D56000200B0000B006A00C0000200B0000B00E9
:100D66007F00C0000100B0000B005100C000010070
:100D7600B0000B006400C0000100B0000B007F0053
:100D8600C0000400B0000B000000C0000400B0006A
:100D96000B005600C0000200B0000B004B00C00064
:100DA6000200B0000B006A00C0000400B0000B0097
:100DB6000000C0000400B0000B005600C000020096
:100DC600B0000B004B00C0000200B0000B006A0030
:100DD600C0000200B0000B007F00C0000100B000A0
:100DE6000B005100C0000100B0000B006400C00001
:100DF6000100B0000B007F00C0000400B0000B0033
:100E06000000C0000400B0000B005600C000020045
:100E1600B0000B004B00C0000200B0000B006A00DF
:100E2600C0000400B0000B001800C0000400B000B1
:100E36000B007F00C0000200B0000B005500C00090
:100E46000100B0000B004400C0000400B0000B001D
:100E56001800C0000400B0000B007F00C0000200B4
:100E6600B0000B005500C0000100B0000B004400AC
:100E7600000000005603C8043C031B0319040804C1
:00000001FF
